:020000040800F2
:1000000000000A20592B0008C9070008CB07000888
:10001000CD070008CF070008D10700080000000046
:10002000000000000000000000000000D3070008EE
:10003000D507000800000000D7070008D90700080E
:10004000A92B0008A92B0008A92B0008A92B000840
:10005000A92B0008A92B0008A92B0008A92B000830
:10006000A92B0008A92B0008A92B0008A92B000820
:10007000A92B0008A92B0008A92B0008A92B000810
:10008000A92B0008A92B0008A92B0008A92B000800
:10009000A92B0008A92B0008A92B0008A92B0008F0
:1000A000A92B0008A92B0008A92B0008A92B0008E0
:1000B000A92B0008A92B0008A92B0008A92B0008D0
:1000C000A92B0008A92B0008A92B0008A92B0008C0
:1000D000A92B0008A92B0008A92B0008A92B0008B0
:1000E000A92B0008A92B0008A92B0008A92B0008A0
:1000F000A92B0008A92B0008A92B0008000000006C
:10010000A92B0008A92B0008A92B0008A92B00087F
:10011000A92B0008A92B0008A92B0008A92B00086F
:10012000A92B0008A92B0008A92B0008A92B00085F
:10013000A92B0008A92B0008A92B0008A92B00084F
:10014000A92B0008A92B0008A92B0008A92B00083F
:10015000A92B0008A92B0008A92B0008A92B00082F
:10016000A92B0008A92B0008A92B0008A92B00081F
:10017000A92B0008A92B00080000000000000000C7
:10018000A92B0008A92B0008A92B0008A92B0008FF
:10019000A92B0008A92B00080000000000000000A7
:1001A0000000000000000000A92B0008A92B000897
:1001B000A92B0008A92B0008A92B000800000000AB
:1001C00053B94AB9002908BF00281CBF4FF0FF31BE
:1001D0004FF0FF3000F00CB8ADF1080C6DE904CE23
:1001E00003F0C8F9DDF804E0DDE9022304B070474C
:1001F000704700BF0348044B834202D0034B03B156
:1002000018477047680000206800002000000000C8
:100210000548064B1B1AD90F01EBA301491002D068
:10022000034B03B1184770476800002068000020A6
:100230000000000010B5064C237843B9FFF7DAFF41
:10024000044B13B10448AFF300800123237010BDA9
:1002500068000020000000003038000808B5054B99
:100260001BB105490548AFF30080BDE80840FFF722
:10027000CFBF00BF000000006C0000203038000835
:1002800072B6FEE700B597B04422002105A802F03F
:1002900027FE00200090019002900390049002F04D
:1002A0000BF938BB222305934FF480730893012385
:1002B0000E934023099302230F93109311931E2250
:1002C000129213931493159305A800F0A5FF98B903
:1002D0000F23009303230193002302934FF48062C2
:1002E000039204930521684601F0D4FA30B917B09F
:1002F0005DF804FBFFF7C4FFFFF7C2FFFFF7C0FF85
:1003000008B500F075FEFFF7BDFF00F013F800F030
:1003100091F800F0C7F800F0F9F800F0D5F90448BA
:1003200002F0BEFC4FF47A7000F084FEF7E700BFE5
:1003300048380008F0B58DB000240794089409945B
:100340000A940B94374BDA6C42F00402DA64DA6CEC
:1003500002F004020192019ADA6C42F08002DA643F
:10036000DA6C02F080020292029ADA6C42F0010228
:10037000DA64DA6C02F001020392039ADA6C42F05A
:100380000202DA64DA6C02F002020492049ADA6C75
:1003900042F00802DA64DA6C02F008020592059A6B
:1003A000DA6C42F04002DA64DB6C03F0400306933F
:1003B000069B02F00FF91C4F22464FF4814138464C
:1003C00002F062F8194D22464021284602F05CF8FE
:1003D0004FF4005307934FF488130893099407A927
:1003E000134801F059FF4FF4814307930126089603
:1003F00009940A9407A9384601F04EFF2023079379
:100400000894099407A9284601F046FF4023079362
:10041000089609940A9407A9284601F03DFF0DB0FB
:10042000F0BD00BF00100240000400480018004862
:100430000008004808B51848184B0360184B436083
:100440004FF0805383600023C36003610C2242613C
:100450008361036243628362436600F0DEFC70B92D
:1004600000210D4800F051FD60B900210A4800F05C
:1004700071FD50B9084800F029FD48B908BDFFF7E3
:10048000FFFEEDE7FFF7FCFEEFE7FFF7F9FEF1E710
:10049000FFF7F6FEF2E700BFAC010020008000404D
:1004A0002433030008B51748174B03604FF4165365
:1004B000436000238360C36003610C224261836157
:1004C000C36103624362836200F0A7FC70B900213C
:1004D0000C4800F01AFD60B900210A4800F03AFD0E
:1004E00050B9084800F0F2FC48B908BDFFF7C8FE53
:1004F000EDE7FFF7C5FEEFE7FFF7C2FEF1E7FFF715
:10050000BFFEF2E718010020004C004008B5174874
:10051000174B03604FF4E133436000238360C360F3
:1005200003610C2242618361C3610362436283629F
:1005300000F073FC70B900210C4800F0E6FC60B9D3
:1005400000210A4800F006FD50B9084800F0BEFC42
:1005500048B908BDFFF794FEEDE7FFF791FEEFE71E
:10056000FFF78EFEF1E7FFF78BFEF2E78400002035
:100570000048004010B5B0B0044600212B912C91EA
:100580002D912E912F91942206A802F0A9FC2368A8
:10059000474A934207D0474A934232D0464A934251
:1005A0005AD030B010BD2023069306A801F006FCF7
:1005B00020BB424BDA6D42F00102DA65DA6D02F0DF
:1005C00001020092009ADA6C42F04002DA64DB6CBD
:1005D00003F040030193019B01F0FCFF4FF4C07353
:1005E0002B9302232C9300232D9303232E93082374
:1005F0002F932BA9324801F04FFED2E7FFF740FEC0
:10060000D7E70823069306A801F0D8FB08BB2B4BBD
:100610009A6D42F400229A659A6D02F400220292C9
:10062000029ADA6C42F00102DA64DB6C03F0010337
:100630000393039B03232B9302222C9200222D92DF
:100640002E9308232F932BA94FF0904001F024FE06
:10065000A7E7FFF715FEDAE70423069306A801F0E3
:10066000ADFB10BB154B9A6D42F480229A659A6DD2
:1006700002F480220492049ADA6C42F00802DA64EE
:10068000DB6C03F008030593059B4FF440732B9339
:1006900002232C9300232D9303232E9307232F93C0
:1006A0002BA9084801F0F8FD7BE7FFF7E9FDD9E742
:1006B00000800040004C0040004800400010024014
:1006C00000180048000C004808B50C484FF0A04343
:1006D0000360062343600223036183610123C36136
:1006E00000220262426283620263C36201F0E4FF9D
:1006F00000B908BDFFF7C4FDFBE700BF40020020C2
:1007000030B5AFB00446002129912A912B912C914C
:100710002D91942204A802F0E3FB2368B3F1A04FCB
:1007200001D02FB030BD4FF40053049304A801F062
:1007300045FB002840D1234CE36C43F00103E36404
:10074000E36C03F001030193019B4FF4E8532993F9
:1007500002232A9300252B9503232C930A232D9300
:1007600029A94FF0904001F097FD4FF400732993B1
:100770002A952B9529A94FF0904001F08DFDE36C4F
:1007800043F48053E364E36C03F480530293029BCD
:10079000A36D13F0805F12D1A36D43F08053A36566
:1007A000A36D03F080530393039B01F00BFFA36D34
:1007B00023F08053A365B4E7FFF762FDBBE701F0C8
:1007C00001FFAEE700100240FEE7FEE7FEE7FEE7AE
:1007D000FEE770477047704708B500F019FC08BD88
:1007E00082B00A4B1A6E42F001021A661A6E02F0CB
:1007F00001020092009A9A6D42F080529A659B6DB8
:1008000003F080530193019B02B070470010024037
:10081000026852E8003F23F4907342E80031002957
:10082000F6D1026802F1080353E8003F23F0805339
:1008300023F00103083242E800310029F1D1C36EF0
:10084000012B06D02023C0F88C300023C3664367F9
:100850007047026852E8003F23F0100342E800317D
:100860000029F6D1EEE7000070B504460168836800
:100870000269134342691343C26913430868964AE5
:1008800002401A430A602268536823F44053E16827
:100890000B435360A1692268904B9A4201D0236AAE
:1008A0001943936823F06E4323F430630B43936042
:1008B0002268D36A23F00F03616A0B43D362236873
:1008C000874A934210D0874A934221D0864A934266
:1008D00037D0864A93425CD0854A93426BD07F4A98
:1008E00093427DD010223AE002F55842D2F8882097
:1008F00002F00302032A09D8DFE802F002048706A7
:1009000001222CE004222AE0082228E0102226E01E
:1009100002F5E632D2F8882002F00C020C2A0ED83A
:10092000DFE802F0070D0D0D090D0D0D750D0D0D14
:100930000B00002213E0042211E008220FE0102235
:100940000DE002F5E432D2F8882002F03002202ACD
:100950005FD01AD8002A5ED0102A5ED104225F49E7
:100960008B4276D0E069B0F5004F00F0C980082ACC
:1009700000F23481DFE812F0F7001901F5003201CE
:100980001C013201320132011F01302A47D10822F5
:10099000E5E702F5E232D2F8882002F0C002802AB0
:1009A0003FD004D8FAB3402A3FD10422D7E7C02A67
:1009B0003DD10822D3E702F5E032D2F8882002F4D4
:1009C0004072B2F5007F34D005D8A2B3B2F5807F73
:1009D00033D10422C3E7B2F5407F30D10822BEE70D
:1009E00002F5C832D2F8882002F44062B2F5006FF6
:1009F00027D005D83AB3B2F5806F26D10422AEE7EE
:100A0000B2F5406F23D10822A9E70222A7E702220C
:100A1000A5E70222A3E70022A1E710229FE7102208
:100A20009DE702229BE7002299E7102297E7102218
:100A300095E7022293E7002291E710228FE7102228
:100A40008DE702228BE7002289E7102287E7102238
:100A500085E7082A00F2B280DFE802F008B03BB078
:100A600038B0B0B005004FF4004004E001F01AF8CF
:100A7000002800F0A580626A1E4B33F81220B0FBFC
:100A8000F2F3656805EB4501994200F29B80B3EBF8
:100A9000053F00F29980002633463146FFF790FB70
:100AA000090241EA106100026B08C0182A46334669
:100AB00041F10001FFF784FBA0F540720E4B9A4212
:100AC00000F284802368D860304665E000F04AFB7D
:100AD000CEE70A48CFE700BFF369FFCF00800040B0
:100AE000003801400044004000480040004C0040F5
:100AF0000050004050380008FFFC0F000024F400B4
:100B0000082A65D8DFE802F0072705642A646464D0
:100B10000B00354803E000F0C5FF00285AD0626A98
:100B2000324B33F81230B0FBF3F06268530803EB3A
:100B30004003B3FBF2F3A3F110014FF6EF729142C1
:100B40004AD89AB222F00F02C3F342031343226839
:100B5000D360002020E000F0B7FFDEE700F002FBEA
:100B6000DBE7214803E000F09DFF002838D0626AEF
:100B70001E4B33F81230B0FBF3F0636800EB530008
:100B8000B0FBF3F0A0F110024FF6EF739A4229D8B0
:100B9000236880B2D86000200123A4F86A30A4F84A
:100BA000683000236367A36770BD00F08DFFDCE74A
:100BB00000F0D8FAD9E74FF40040D8E70120EBE77E
:100BC0000020E9E70120E7E70120E5E70120E3E76E
:100BD0000120E1E70020DFE70120DDE70120DBE77E
:100BE0000020D9E70120D7E70024F400503800089E
:100BF000836A13F0080F06D00268536823F4004399
:100C0000816B0B435360836A13F0010F06D00268B7
:100C1000536823F40033C16A0B435360836A13F0B3
:100C2000020F06D00268536823F48033016B0B4334
:100C30005360836A13F0040F06D00268536823F4EC
:100C40008023416B0B435360836A13F0100F06D06F
:100C50000268936823F48053C16B0B439360836AEB
:100C600013F0200F06D00268936823F40053016C40
:100C70000B439360836A13F0400F0AD002685368F5
:100C800023F48013416C0B435360436CB3F5801F16
:100C90000BD0836A13F0800F06D00268536823F4E8
:100CA0000023C16C0B43536070470268536823F400
:100CB000C003816C0B435360EBE72DE9F843054615
:100CC0000F4616469946DDF820802B68DC6937EA26
:100CD00004040CBF01240024B44232D1B8F1FF3F18
:100CE000F3D000F0A1F9A0EB090040452CD8B8F1F1
:100CF000000F2BD02B681A6812F0040FE5D0DA69C8
:100D000012F0080F11D1DA6912F4006FDDD04FF440
:100D100000621A622846FFF77BFD2023C5F8903059
:100D2000002385F8843003200CE008241C62284648
:100D3000FFF76EFDC5F89040002385F88430012050
:100D400000E00020BDE8F8830320FBE70320F9E77B
:100D500030B583B004460023C0F8903000F064F949
:100D600005462268126812F0080F10D123681B682C
:100D700013F0040F28D12023C4F88830C4F88C3035
:100D80000020E066206784F8840003B030BD6FF077
:100D90007E430093034600224FF400112046FFF7E4
:100DA0008CFF0028E2D0226852E8003F23F0800345
:100DB00042E800310029F6D12023C4F8883000230E
:100DC00084F884300320E0E76FF07E4300932B46E5
:100DD00000224FF480012046FFF76FFF0028CAD0A1
:100DE000226852E8003F23F4907342E80031002962
:100DF000F6D1226802F1080353E8003F23F0010313
:100E0000083242E800310029F3D12023C4F88C30A5
:100E1000002384F884300320B7E778B310B5044684
:100E2000D0F888300BB32423C4F8883022681368C4
:100E300023F001031360A36AE3B92046FFF714FD12
:100E4000012811D02268536823F49043536022682C
:100E5000936823F02A0393602268136843F0010328
:100E600013602046FFF774FF10BD80F88430FFF751
:100E700081FBD8E72046FFF7BBFEDEE70120704785
:100E8000436E2BB90123A0F86A30A0F86830704790
:100E900030B403689A68C2F342629968490F094DF9
:100EA0006B5CDB00084C615C93FBF1F3A0F86A30EB
:100EB000AB5CDB00A25C93FBF2F3A0F8683030BCC3
:100EC000704700BF703800086838000890F8843018
:100ED000012B18D0012380F884302423C0F88830F7
:100EE00003681A68196821F00101196022F00052A4
:100EF0000023436601680A602022C0F8882080F839
:100F00008430184670470220704738B590F8843016
:100F1000012B1DD00446012380F884302423C0F81F
:100F2000883003681D681A6822F001021A6002689E
:100F3000936823F0604319439160FFF7A1FF236892
:100F40001D602023C4F88830002084F8840038BD58
:100F50000220FCE738B590F88430012B1DD0044600
:100F6000012380F884302423C0F8883003681D688A
:100F70001A6822F001021A600268936823F0606325
:100F800019439160FFF77CFF23681D602023C4F89C
:100F90008830002084F8840038BD0220FCE700007F
:100FA000104B1B780BB90120704710B504464FF465
:100FB0007A70B0FBF3F30C4A1068B0FBF3F001F069
:100FC00067FB68B90F2C01D901200AE000222146F5
:100FD0004FF0FF3001F04CFB044B1C60002000E0A0
:100FE000012010BD000000200800002004000020A7
:100FF00010B5032001F02AFB0020FFF7D1FF10B14C
:101000000124204610BD0446FFF7EAFBF9E7000083
:10101000034B1B78034A11680B441360704700BFF1
:10102000000000204C070020014B1868704700BFEB
:101030004C07002038B50446FFF7F6FF0546B4F12B
:10104000FF3F02D0044B1B781C44FFF7EDFF401B11
:10105000A042FAD338BD00BF000000201A4BDB6865
:1010600003F00303022B2BD0032B2BD0012B14D026
:101070000021154AD368C3F303130133D068C0F3CA
:10108000062001FB00F0B0FBF3F0D368C3F341632B
:1010900001335B00B0FBF3F070470B4B1B6813F0A0
:1010A000080F08D1084BD3F89430C3F30323074A41
:1010B00052F82310DDE7044B1B68C3F30313F6E774
:1010C0000349D6E70349D4E7001002407838000806
:1010D0000024F40000127A0030B583B004461F4BA0
:1010E0009B6D13F0805F0AD001F0D4F9B0F5007F5A
:1010F00016D07F2C1ED8702C2BD000211BE0174D52
:10110000AB6D43F08053AB65AB6D03F0805301933F
:10111000019B01F0BFF9AB6D23F08053AB65E5E7B0
:10112000802C03D9A02C03D9022104E0002102E085
:10113000012100E002210A4A136823F00F030B4348
:101140001360136803F00F038B4204D1002003B037
:1011500030BD0121EFE70120F9E700BF0010024098
:1011600000200240284A9368D26802F0030213F07C
:101170000C030AD00C2B06D0042B1FD0082B20D038
:101180000020024610E0012AF6D11F4A126812F030
:10119000080F0CD11C4AD2F89420C2F303221B4939
:1011A00051F8222043B100200C2B0DD07047164A75
:1011B0001268C2F30312F2E71046F5E71448002262
:1011C000F2E714480022EFE70F4BDB6803F003035C
:1011D000022B16D0032B00D10E4A0B49CB68C3F368
:1011E00003130133C868C0F3062002FB00F0B0FB14
:1011F000F3F0CB68C3F3416301335B00B0FBF3F062
:10120000D4E7034AE9E700BF00100240783800083D
:101210000024F40000127A00002800F02283F0B5C8
:1012200083B00446964B9D6805F00C05DE6806F019
:101230000306036813F0100F5AD0E5B10C2D18D037
:10124000A369002B00F0BB808D4A136843F00103B3
:101250001360FFF7E9FE0746894B1B6813F0020F86
:1012600040F09A80FFF7E0FEC01B0228F4D903206B
:1012700002E3012EE4D1824B1B6813F0020F03D06E
:10128000A369002B00F0EF82206A7D4B1B6813F0EE
:10129000080F5BD07A4B1B6803F0F00398425CD8D0
:1012A000774B1A6842F008021A601A6822F0F002BE
:1012B000216A0A431A605A6822F47F42E16942EACD
:1012C00001225A60002D60D0FFF74CFF6C4B9B68E9
:1012D000C3F303136B4AD35C03F01F03D8406A4B7C
:1012E00018606A4B1868FFF75BFE002840F0C48264
:1012F000236813F0010F00F08180082D75D00C2DAC
:1013000071D06368B3F5803F00F09780B3F5A02FEC
:1013100000F099805A4B1A6822F480321A601A68D9
:1013200022F480221A606368002B00F09980FFF796
:101330007BFE0746524B1B6813F4003F5ED1FFF75C
:1013400073FEC01B6428F5D9032095E24C4BD3F8FB
:1013500094301B0903F0F003A0E7FFF7BDFE00285F
:1013600040F08382464B1A6842F008021A601A68FD
:1013700022F0F002216A0A431A605A6822F47F427E
:10138000E16942EA01225A609EE7206AFFF7A4FE63
:10139000002899D001206FE2394B1A6842F0080208
:1013A0001A601A6822F0F002216A0A431A605A6829
:1013B00022F47F42E16942EA01225A6098E7304A0A
:1013C000136823F001031360FFF72EFE07462C4B32
:1013D0001B6813F0020F8BD0FFF726FEC01B0228FC
:1013E000F5D9032048E2032E8BD1254B1B6813F45B
:1013F000003F03D06368002B00F03982236813F0AC
:10140000020F58D0042D45D00C2D41D0E368002B9D
:1014100077D01B4A136843F480731360FFF704FE10
:101420000646174B1B6813F4806F61D1FFF7FCFD74
:10143000801B0228F5D903201EE2114A136843F4E9
:10144000803313606FE703F18043A3F53C331A68E0
:1014500042F480221A601A6842F480321A6062E70D
:10146000FFF7E2FD0746064B1B6813F4003FC5D0AB
:10147000FFF7DAFDC01B6428F5D90320FCE100BFAB
:1014800000100240B03800080800002004000020CE
:10149000022EBBD1A74B1B6813F4806F03D0E36807
:1014A000002B00F0E681A34A536823F0FE43216934
:1014B00043EA01635360236813F0080F4CD063695B
:1014C0009BB39C4AD2F8943043F00103C2F89430A5
:1014D000FFF7AAFD0646974BD3F8943013F0020F9E
:1014E0003AD1FFF7A1FD801B0228F4D90320C3E104
:1014F000904A536823F0FE43216943EA0163536035
:10150000D9E78C4A136823F480731360FFF78CFDCE
:101510000646884B1B6813F4806FCCD0FFF784FD20
:10152000801B0228F5D90320A6E1824AD2F8943024
:1015300023F00103C2F89430FFF776FD06467D4B99
:10154000D3F8943013F0020F06D0FFF76DFD801B27
:101550000228F4D903208FE1236813F0040F7AD016
:10156000744B9B6D13F0805F36D1724B9A6D42F0D5
:1015700080529A659B6D03F080530193019B012675
:101580006D4B1B6813F4807F28D0A368012B39D0E2
:10159000052B3FD0674BD3F8902022F00102C3F80F
:1015A0009020D3F8902022F00402C3F89020A36882
:1015B000002B3DD0FFF738FD07465E4BD3F8903047
:1015C00013F0020F46D1FFF72FFDC01B41F2883305
:1015D0009842F2D903204FE10026D1E7564A13681A
:1015E00043F480731360FFF71FFD0746524B1B68DF
:1015F00013F4807FC9D1FFF717FDC01B0228F5D96E
:10160000032039E14B4AD2F8903043F00103C2F88D
:101610009030CCE7474BD3F8902042F00402C3F857
:101620009020D3F8902042F00102C3F89020BEE74A
:10163000FFF7FAFC07463F4BD3F8903013F0020F48
:1016400008D0FFF7F1FCC01B41F288339842F2D971
:10165000032011E1E6B9236813F0200F35D0636A47
:10166000E3B1344AD2F8983043F00103C2F898301D
:10167000FFF7DAFC06462F4BD3F8983013F0020F31
:1016800023D1FFF7D1FC801B0228F4D90320F3E01B
:10169000284A936D23F080539365DCE7254AD2F8FE
:1016A000983023F00103C2F89830FFF7BDFC0646DE
:1016B000204BD3F8983013F0020F06D0FFF7B4FC9C
:1016C000801B0228F4D90320D6E0A36A002B00F087
:1016D000D280022B17D00C2D00F0D480154A13684D
:1016E00023F080731360FFF79FFC0446114B1B68C7
:1016F00013F0007F00F0AE80FFF796FC001B02287D
:10170000F4D90320B8E00B4BDB6803F00301E26A75
:10171000914213D00C2D00F0B180064B1B6813F0E2
:10172000806F40F0AD80034B1B6813F0805F2FD0BB
:101730000120A1E0001002400070004003F0F00220
:10174000216B0139B2EB011FE4D103F4FE42616B5E
:10175000B2EB012FDED103F07842A16BB2EBC16F87
:10176000D8D103F4C001E26B5208013AB1EB425FF9
:10177000D0D103F0C063226C5208013AB3EB426F40
:10178000C8D1414B1B6813F0007F49D0002073E0A3
:101790003D4A136823F080731360FFF745FC05464C
:1017A000394B1B6813F0007F06D0FFF73DFC401B50
:1017B0000228F5D903205FE0334AD3683349194042
:1017C000E36A206B013843EA0013606B43EA0023AD
:1017D000E06B4008013843EA4053206C4008013870
:1017E00043EA4063A06B43EAC0631943D1601368C6
:1017F00043F080731360D36843F08073D360FFF7C6
:1018000013FC0446204B1B6813F0007F06D1FFF742
:101810000BFC001B0228F5D903202DE000202BE053
:10182000194B1A6842F080721A60DA6842F08072CE
:10183000DA60FFF7F9FB0446134B1B6813F0007FD7
:1018400006D1FFF7F1FB031B022BF5D9032013E0B0
:10185000002011E00C4AD1680D4B0B40D3600020F2
:101860000AE001207047012006E0012004E0012089
:1018700002E0012000E0002003B0F0BD0120FBE702
:101880000120F9E70120F7E7001002400C809D01DC
:10189000FCFFEEFE002800F0EA80F8B50D46044695
:1018A000774B1B6803F00F038B420BD2744A13680B
:1018B00023F00F030B431360136803F00F038B42F5
:1018C00040F0D780236813F0020F0CD0A2686D4B54
:1018D0009B6803F0F0039A4205D96A498B6823F0AC
:1018E000F0031A438A60236813F0010F6ED0636817
:1018F000032B0DD0022B25D0002B3CD103F18043CC
:1019000003F504331B6813F0020F21D10120A7E077
:101910005C4B1B6813F0007F01D10120A0E0FFF7B2
:101920009DFB594B98422DD9564B9B6813F0F00FF5
:101930002AD1544A936823F0F00343F08003936064
:10194000802724E04F4B1B6813F4003F00F0938086
:10195000FFF708FC4C4B984218D94A4B9B6813F090
:10196000F00F2FD1474A936823F0F00343F0800330
:10197000936080270BE0434B1B6813F4806FE7D123
:1019800001206DE0002702E0002700E000273D4A2B
:10199000936823F0030361680B439360FFF744FBF4
:1019A0000646384B9B6803F00C036268B3EB820F6A
:1019B0000AD0FFF739FB801B41F288339842F0D9F7
:1019C00003204DE00027E2E7002F4AD1236813F0FF
:1019D000020F0CD0A2682B4B9B6803F0F0039A42D5
:1019E00005D228498B6823F0F0031A438A60244B00
:1019F0001B6803F00F03AB420AD9214A136823F096
:101A00000F032B431360136803F00F03AB4234D171
:101A1000236813F0040F06D01A4A936823F4E06396
:101A2000E1680B439360236813F0080F07D0154A51
:101A3000936823F46053216943EAC1039360FFF77D
:101A400091FB104B9B68C3F30313104AD35C03F064
:101A50001F03D8400E4B18600E4B1868FFF7A0FA12
:101A6000F8BD084A936823F0F0039360AEE70120C5
:101A700070470120F4E70120F2E70120F0E700BF02
:101A8000002002400010024000B4C404B038000836
:101A90000800002004000020014B1868704700BFB8
:101AA0000800002008B5FFF7F7FF054B9B68C3F35C
:101AB0000223044AD35C03F01F03D84008BD00BFD3
:101AC00000100240A838000808B5FFF7E5FF054BF5
:101AD0009B68C3F3C223044AD35C03F01F03D840BE
:101AE00008BD00BF00100240A8380008F8B5044641
:101AF0000E46544BDB6813F0030F0DD0514BDB68DF
:101B000003F003030268934201D001250CE0002A90
:101B100000F09680002517E00368022B55D0032BB8
:101B20005AD0012B02D001252846F8BD454A12683B
:101B300012F0020F5CD04349CA6822F0030213433B
:101B4000CB600025002DEFD13E4A136823F080536F
:101B50001360FFF769FA07463A4B1B6813F0005F02
:101B600005D0FFF761FAC31B022BF5D90325002D21
:101B7000DAD1002E3ED133484369334A1A40A16876
:101B8000E368DB0643EA01236168013943EA011394
:101B90001A4342612B4A136843F080531360FFF7E6
:101BA00043FA0646274B1B6813F0005F05D1FFF789
:101BB0003BFA801B0228F5D90325002DB4D1214A18
:101BC0005369A1690B435361AEE71E4A126812F4D0
:101BD000806FB0D10125A7E71A4A126812F4003FBE
:101BE000A9D1184A126812F4802FA4D101259BE7CD
:101BF0000125A7E7012E11D012484369134A1A4064
:101C0000A16863695B08013B5B0643EA01236168E5
:101C1000013943EA01131A434261BBE709484369AA
:101C20000B4A1A40A16823695B08013B5B0543EA44
:101C300001236168013943EA01131A434261A9E7AC
:101C4000012571E7001002400F80FF070F80FFF9A8
:101C50000F809FFFF8B504460E46544BDB6813F027
:101C6000030F0DD0514BDB6803F00303026893426E
:101C700001D001250CE0002A00F09680002517E035
:101C80000368022B55D0032B5AD0012B02D001251B
:101C90002846F8BD454A126812F0020F5CD043494D
:101CA000CA6822F003021343CB600025002DEFD158
:101CB0003E4A136823F080631360FFF7B5F90746C7
:101CC0003A4B1B6813F0006F05D0FFF7ADF9C31B4B
:101CD000022BF5D90325002DDAD1002E3ED1334851
:101CE0000369334A1A40A168E368DB0643EA01232B
:101CF0006168013943EA01131A4302612B4A1368F0
:101D000043F080631360FFF78FF90646274B1B688B
:101D100013F0006F05D1FFF787F9801B0228F5D972
:101D20000325002DB4D1214A1369A1690B43136126
:101D3000AEE71E4A126812F4806FB0D10125A7E702
:101D40001A4A126812F4003FA9D1184A126812F414
:101D5000802FA4D101259BE70125A7E7012E11D0F3
:101D600012480369134A1A40A16863695B08013B82
:101D70005B0643EA01236168013943EA01131A4310
:101D80000261BBE7094803690B4A1A40A16823694D
:101D90005B08013B5B0543EA01236168013943EAC3
:101DA00001131A430261A9E7012571E700100240FF
:101DB0000F80FF070F80FFF90F809FFF2DE9F04193
:101DC00082B00446036813F4006F34D0C36E402B16
:101DD0001FD00BD823B3202B05D100212030FFF7D3
:101DE00085FE064621E001273E4626E0602B20D0F6
:101DF000802B0BD10026634AD2F89C3023F0E003FD
:101E0000E16E0B43C2F89C30002716E001273E46E6
:101E100013E05C4AD36843F48033D3600026EAE7DA
:101E200000210430FFF716FF0646002EE3D03746A8
:101E300003E00026DFE700273E46236813F4805FB7
:101E400033D0236FB3F5007F22D00DD833B3B3F571
:101E5000807F06D1002104F12000FFF747FE0646EF
:101E600008E001273E4620E0B3F5407F02D0B3F5FD
:101E7000806F0AD1C6B9434AD2F89C3023F4E0639C
:101E8000216F0B43C2F89C300FE001273E460CE067
:101E90003C4AD36843F48033D360EBE70021201D34
:101EA000FFF7D8FE0646E5E73746236813F4003F00
:101EB00071D0344B9B6D13F0805F4ED1314B9A6DD6
:101EC00042F080529A659B6D03F080530193019B11
:101ED0004FF001082C4A136843F480731360FFF736
:101EE000A3F80546284B1B6813F4807F05D1FFF744
:101EF0009BF8401B0228F5D90326002E46D1214B22
:101F0000D3F8903013F4407316D0D4F890209A424E
:101F100012D01C4AD2F8903023F44073D2F89010BB
:101F200041F48031C2F89010D2F8901021F4803141
:101F3000C2F89010C2F8903013F0010F10D1002EAB
:101F400040F059810F4AD2F8903023F44073D4F80E
:101F500090100B43C2F8903019E04FF00008B9E739
:101F6000FFF762F80546074BD3F8903013F0020FE5
:101F7000E5D1FFF759F8401B41F288339842F2D976
:101F80000326DCE700100240007000403746B8F13D
:101F9000000F40F03281236813F0010F08D0B64AD9
:101FA000D2F8883023F00303E16B0B43C2F888308A
:101FB000236813F0020F08D0AF4AD2F8883023F01C
:101FC0000C03216C0B43C2F88830236813F0040F14
:101FD00008D0A94AD2F8883023F03003616C0B4353
:101FE000C2F88830236813F0080F08D0A24AD2F84C
:101FF000883023F0C003A16C0B43C2F888302368FB
:1020000013F0100F08D09C4AD2F8883023F44073A4
:10201000E16C0B43C2F88830236813F0200F08D01E
:10202000954AD2F8883023F44063216D0B43C2F8FF
:102030008830236813F4007F08D08F4AD2F88830A4
:1020400023F44023616E0B43C2F88830236813F4F5
:10205000806F08D0884AD2F8883023F44013A16EEC
:102060000B43C2F88830236813F0400F08D0824A2F
:10207000D2F8883023F44053616D0B43C2F88830A6
:10208000236813F0800F08D07B4AD2F8883023F4FD
:102090004043A16D0B43C2F88830236813F4807F5E
:1020A00008D0754AD2F8883023F44033E16D0B43F1
:1020B000C2F88830236813F4801F08D06E4AD2F823
:1020C0009C3023F00303216E0B43C2F89C3023683D
:1020D00013F4005F11D0684AD2F8883023F04063CF
:1020E000616F0B43C2F88830636FB3F1006F00F08B
:1020F0008A80B3F1806F00F08B80236813F4002F87
:102100001FD0A36FB3F5804F00F08B805A4AD2F8EE
:102110009C3023F48043C2F89C30D2F8883023F0FE
:102120004063A16F0B43C2F88830A36FB3F1006F17
:102130007FD0B3F5804F00F08280B3F1806F00F064
:102140008480236813F4802F0FD04B4AD2F8883054
:1021500023F04063E16F0B43C2F88830E36FB3F1C3
:10216000006F7BD0B3F1806F7DD0236813F4804F74
:102170000ED0414AD2F8883023F04053D4F8801072
:102180000B43C2F88830D4F88030B3F1805F75D04B
:10219000236813F4803F09D0374AD2F89C3023F0EB
:1021A0000403D4F884100B43C2F89C30236813F462
:1021B000001F09D0304AD2F89C3023F01803D4F81D
:1021C00088100B43C2F89C30236813F0807F0ED038
:1021D000294AD2F89C3023F44013D4F88C100B43D6
:1021E000C2F89C30D4F88C30B3F5001F4ED038467E
:1021F00002B0BDE8F0813746C9E61F4A936D23F06F
:1022000080539365C7E6D36843F48013D36074E7C3
:102210000121201DFFF71EFD00283FF46EAF074689
:102220006BE7154AD2F89C3043F48043C2F89C30E7
:102230007BE7114AD36843F48013D36081E70E4AE9
:10224000D36843F48033D3607BE70121201DFFF77F
:1022500001FD00283FF475AF074672E7D36843F4E9
:102260008013D36081E70121201DFFF7F3FC0028D4
:102270003FF47BAF074678E7001002400221201DA3
:10228000FFF7E8FC002883D0074681E7D36843F4D2
:102290008013D360ABE700BFF0B583B0002362E0EA
:1022A00085685E000324B44025EA0405CC68B44088
:1022B0002C438460456825EA0C054C68C4F300147F
:1022C0009C402C43446060E0DD08083550F8254010
:1022D00003F0070C4FEA8C0C4FF00F0E0EFA0CFEB9
:1022E00024EA0E0E0C6904FA0CF444EA0E0440F8D9
:1022F000254061E0072400E0002404FA0EF42C439A
:102300000CF1020C5C4D45F82C405C4CA568D443A4
:1023100025EA02064F6817F4801F01D042EA05063D
:10232000564DAE60ED6804EA05064F6817F4001FCD
:1023300001D042EA0506514DEE606D6804EA0506DB
:102340004F6817F4003F01D042EA05064B4D6E601E
:102350002D682C404E6816F4803F01D042EA0504F7
:10236000464A146001330A6832FA03F400F08180AF
:102370004FF0010C0CFA03FC1CEA0202F2D04C688C
:1023800004F00304013C012C8AD94C6804F00304D6
:10239000032C0CD0C4685D004FF0030C0CFA05FC54
:1023A00024EA0C0C8C68AC4044EA0C04C4604C6811
:1023B00004F00304022C87D004684FEA430E4FF068
:1023C000030C0CFA0EFC24EA0C0C4C6804F0030419
:1023D00004FA0EF444EA0C0404604C6814F4403F20
:1023E000C0D0274C256E45F001052566246E04F00B
:1023F00001040194019C4FEA930C0CF102051E4C60
:1024000054F8255003F0030E4FEA8E0E0F2404FA01
:102410000EF425EA0405B0F1904F3FF46DAF194C6E
:10242000A0421AD004F58064A04218D004F580645C
:10243000A04216D004F58064A04214D004F5806454
:10244000A04212D004F58064A04210D004F580644C
:10245000A0423FF44FAF08244FE701244DE7022488
:102460004BE7032449E7042447E7052445E706240E
:1024700043E703B0F0BD00BF00000140000401408D
:1024800000100240000400480AB181617047816277
:1024900070470000074B186800F4C060B0F5806F0B
:1024A00004D0D3F8800010F4807000D170474FF44E
:1024B0000070FBE700700040002836D13E4B1B68DF
:1024C00003F4C063B3F5806F08D03B4AD2F8803084
:1024D00023F48073C2F8803000207047364AD2F867
:1024E000803023F48073C2F88030136823F4C06313
:1024F00043F400731360314B1B68322202FB03F379
:102500002F4AA2FB03239B0C013300E0013B2A4A24
:10251000526912F4806F01D0002BF7D1264B5B6912
:1025200013F4806F44D100207047B0F5007F08D0CD
:10253000214A136823F4C06343F4806313600020CE
:1025400070471D4B1B6803F4C063B3F5806F08D060
:10255000194AD2F8803043F48073C2F880300020EA
:102560007047154AD2F8803043F48073C2F8803047
:10257000136823F4C06343F4007313600F4B1B68AC
:10258000322202FB03F30E4AA2FB03239B0C01330E
:1025900000E0013B084A526912F4806F01D0002B21
:1025A000F7D1054B5B6913F4806F03D100207047AE
:1025B000032070470320704700700040080000208F
:1025C00083DE1B43024A536843F4806353607047C1
:1025D00000700040024A536843F400735360704730
:1025E00000700040002808DB0901C9B200F160401A
:1025F00000F5614080F80013704700F00F000901FA
:10260000C9B2014B1954704714ED00E000B500F059
:102610000700C0F1070CBCF1040F28BF4FF0040CF9
:10262000031D062B0FD9C31E4FF0FF3E0EFA0CF010
:1026300021EA000199400EFA03FE22EA0E0241EA65
:1026400002005DF804FB0023EEE70000074AD368B0
:1026500023F4E0631B041B0C000200F4E06003435E
:1026600043F0BF6343F40033D360704700ED00E0F4
:1026700010B50446054BD868C0F30220FFF7C6FF2B
:1026800001462046FFF7AEFF10BD00BF00ED00E0A1
:102690000138B0F1807F0BD24FF0E0235861054A3A
:1026A000F02182F823100020986107221A617047F8
:1026B0000120704700ED00E070B58AB0002800F0FE
:1026C00097800546046890F8BD343BB3032385F832
:1026D000BD34E36B13F4807F01D10023EB602868E5
:1026E00000F0E0F82C4654F8106BEC460FCCACE848
:1026F0000F000FCCACE80F0094E803008CE8030057
:102700002B1D0ECB304600F0B1F8044658B1022321
:1027100085F8BD34012420460AB070BD80F8BC3471
:10272000FDF7EEFFD2E70021286800F0D9F9234633
:1027300016E003EBC30205EB8202012182F83D1093
:1027400082F83C30A2F85630002182F840105164E3
:10275000916403EBC30205EB8202D1640133DBB267
:1027600069688B42E5D316E004EBC40305EB8303F1
:10277000002283F87D2283F87C4283F88022C3F80C
:102780008422C3F8882204EBC40305EB8303C3F857
:102790008C220134E4B2A142E6D82C4654F8106BE6
:1027A000EC460FCCACE80F000FCCACE80F0094E87F
:1027B00003008CE803002B1D0ECB304600F0CEF852
:1027C000044660B9002385F83830012385F8BD340C
:1027D0006B6A012B08D0286800F070F99BE7022390
:1027E00085F8BD34012496E7284600F003F8F2E7A7
:1027F000012490E7034602680121C0F8001500207B
:1028000083F8F404936943F000639361536D43F0DC
:10281000805343F0030353657047000082B00023E8
:102820000193019B01330193019A0F4B9A4215D8F2
:102830000369002BF5DA00230193036943F00103D8
:102840000361019B01330193019A074B9A4208D817
:10285000036913F0010FF4D1002000E0032002B05F
:1028600070470320FBE700BF400D030084B010B5A4
:1028700004460DF10C0C8CE80E00C36843F04003D5
:10288000C360FFF7CBFF0C9B3BB9A36B43F48033D2
:10289000A363BDE8104004B07047A36B23F48033FA
:1028A000A363F6E7836823F0010383600020704789
:1028B00082B000230193019B01330193019A0F4BD6
:1028C0009A4215D80369002BF5DA00230193890198
:1028D00041F020010161019B01330193019A074BF3
:1028E0009A4208D8036913F0200FF4D1002000E0C9
:1028F000032002B070470320FBE700BF400D030038
:1029000082B000230193019B01330193019A0E4B86
:102910009A4213D80369002BF5DA002301931023A0
:102920000361019B01330193019A074B9A4208D836
:10293000036913F0100FF4D1002000E0032002B06F
:1029400070470320FBE700BF400D0300D0F80038BC
:102950001943C0F8001800207047000084B0F8B593
:10296000044607A880E80E00002306E003F14002B9
:1029700004EB82020021516001330E2BF6D9119E27
:1029800076BBD4F8043843F00203C4F80438A36BD0
:1029900023F40013A363236843F0400323602368F8
:1029A00043F0800323600023C4F8003E0321204647
:1029B000FFF7CCFF10212046FFF77AFF054600B154
:1029C00001252046FFF79CFF00B1012504F5006CAE
:1029D0000023CCF81030CCF81430CCF81C300FE0C9
:1029E000A36B43F40013A363DDE7C3B94FF00060AA
:1029F000C2F8000900220A614FF67F328A60013373
:102A00000799994210D904EB431202F51061D2F8EC
:102A100000090028E9DB0020C2F80009EAE74FF0CE
:102A20009040C2F80009E5E700230AE0BBB14FF08F
:102A30009047C2F8007B002202614FF67F3282602D
:102A40000133994210D904EB431202F53060D2F8F9
:102A5000007B002FEADB0027C2F8007BEBE74FF09A
:102A60000067C2F8007BE6E7DCF8103023F48073DF
:102A7000CCF810300023A3616FF080436361A36939
:102A800043F01003A361A2690B4B1343A3610D9B99
:102A90001BB1A36943F00803A361012E04D02846AB
:102AA000BDE8F84004B07047A36943F0804343F0A9
:102AB0000403A361F3E700BF00383C80D0F8003E78
:102AC00023F00303C0F8003ED0F8043843F00203BB
:102AD000C0F8043800207047406900F001007047DA
:102AE00038B50546C36823F0C043C360012913D03D
:102AF00019BBC36843F08043C36000240120FEF784
:102B000099FA01342846FFF7E7FF08B1312CF5D9CF
:102B1000322C14D0002038BDC36843F00053C3608A
:102B200000240120FEF786FA01342846FFF7D4FF7F
:102B30000128EDD0312CF4D9EAE70120EBE70120A0
:102B4000E9E70000034AD2F8883043F47003C2F882
:102B50008830704700ED00E0DFF834D0FFF7F2FF77
:102B60000C480D490D4A002302E0D458C4500433E8
:102B7000C4188C42F9D30A4A0A4C002301E01360BE
:102B80000432A242FBD300F011F8FDF7B9FBFEE7D7
:102B900000000A200000002068000020D83800084B
:102BA00068000020A0080020FEE7000070B50D4D71
:102BB0000D4C641BA4100026A64209D10B4D0C4CF1
:102BC00000F036FE641BA4100026A64205D170BD9D
:102BD00055F8043B98470136EEE755F8043B984713
:102BE0000136F2E7C8380008C8380008C8380008BD
:102BF000CC380008036A70B5846805460E460BB9E8
:102C000000F0E2F8636EDB0705D4A389980502D4CF
:102C1000A06D00F06EF9A389190702D52369002B76
:102C200035D12146284600F0A5F980B34FF0FF3595
:102C3000636EDA0705D4A3899B0502D4A06D00F06A
:102C400059F9284670BD002B15DB23685A1C2260F9
:102C50001970A36816F8011F013BA3600029F2D187
:102C6000002B16DA22460A21284600F044F90130EA
:102C7000DCD00A25DCE7A2699A4201DC0A29E4D10A
:102C80002246284600F037F90130E2D1CEE7013E76
:102C9000DFE723685A1C22600A221A70E9E7000065
:102CA000024B01461868FFF7A5BF00BF0C000020CB
:102CB000002310B50446C0E90033C0E90433836043
:102CC00081814366C2818361194608225C3000F02D
:102CD00007F90D4B63620D4BA3620D4BE3620D4B85
:102CE00023630D4B24629C4206D003F16802944298
:102CF00002D0D0339C4205D104F15800BDE8104009
:102D000000F0F6B810BD00BFF92D00081B2E00081A
:102D1000532E0008772E000850070020024A03496E
:102D2000034800F0BFB800BF5C0000204931000834
:102D30001000002041680C4B994210B5044601D0A8
:102D400000F002FAA168094B994202D0204600F037
:102D5000FBF9E168064B994204D02046BDE81040DB
:102D600000F0F2B910BD00BF50070020B8070020E6
:102D70002008002010B50B4B0B4C0C4A1A60204663
:102D800000220421FFF794FF04F1680001220921C9
:102D9000FFF78EFF04F1D0000222BDE8104012219F
:102DA000FFF786BF88080020500700201D2D00086F
:102DB000014800F09EB800BF8D080020014800F0D7
:102DC00099B800BF8D08002010B50446FFF7F0FF4A
:102DD000236A1BB1BDE81040FFF7F0BF044B23622C
:102DE000044B1B68002BF5D1FFF7C4FFF2E700BFCF
:102DF000352D00088808002010B50C46B1F90E10DA
:102E000000F07EFA0028ABBF636DA3891B1823F482
:102E10008053ACBF6365A38110BD2DE9F0411F460F
:102E20008B89DB0505460C46164605D5B1F90E1013
:102E30000223002200F052FAA389B4F90E1023F401
:102E40008053A38132463B462846BDE8F04100F05E
:102E500017B810B50C46B1F90E1000F03FFA431C3C
:102E6000A38915BF606523F4805343F48053A38185
:102E700018BFA38110BDB1F90E1000F0D1B8000049
:102E800038B5074D04460846114600222A601A4606
:102E900000F068FB431C02D12B6803B1236038BDEE
:102EA000900800202DE9F84307468846144600267E
:102EB000D4E90195B9F1010905D52468002CF7D1B1
:102EC0003046BDE8F883AB89012B07D9B5F90E3040
:102ED000013303D029463846C04706436835E9E741
:102EE00002440346934200D1704703F8011BF9E7FF
:102EF000704770477047F8B50E461446054618B13E
:102F0000036A0BB9FFF760FFA369A360A3891A07DF
:102F100001D5236943B92146284600F02BF818B1A2
:102F20004FF0FF373846F8BD23682269981A636965
:102F3000F6B28342374605DC2146284600F004F904
:102F40000028EDD1A368013BA36023685A1C2260CE
:102F50001E706269431C9A4204D0A389DB07E1D545
:102F60000A2EDFD12146284600F0EEF80028D9D0FD
:102F7000D6E7000038B5294B054618680C4618B14D
:102F8000036A0BB9FFF720FFB4F90C30190722D4FC
:102F9000DA0607D409222A6043F04003A3814FF0E8
:102FA000FF3033E0580712D5616B41B104F144039F
:102FB000994202D0284600F0D1F900236363A38927
:102FC00023F02403A3810023636023692360A38982
:102FD00043F00803A38123694BB9A38903F4207349
:102FE000B3F5007F03D02146284600F027FAB4F954
:102FF0000C3013F001020AD00022A2606269524232
:10300000A261226942B913F08000C5D138BD990789
:1030100058BF6269A260F4E70020F7E70C000020C7
:1030200038B5064D0023044608462B6000F064FACC
:10303000431C02D12B6803B1236038BD90080020E7
:10304000B1F90C202DE9F041170705460C4656D47E
:103050004B68002B02DC0B6C002B3DDDE66A002E7A
:103060003AD0002312F480522F68216A2B6025D0B9
:10307000626DA389580705D56368D21A636B0BB1DB
:10308000236CD21A216AE66A00232846B047411C05
:1030900024D00023636023692360A389DA0400D568
:1030A0006065616B2F60B9B104F14403994202D0AD
:1030B000284600F053F9002363630DE001232846FE
:1030C000B047461C0246D4D12B68002BD1D01D2B13
:1030D00001D0162B2BD12F6000202FE02A68B4F9E5
:1030E0000C3042B11D2A01D0162A22D10023636080
:1030F00023692360D5E7626022692260CEE70F6909
:10310000002FE9D093070E6808BF4B690F6018BF06
:103110000023A6EB07088B60B8F1000FDCDD216A05
:10312000A66A43463A462846B047002808DCB4F968
:103130000C3043F04003A3814FF0FF30BDE8F08135
:103140000744A8EB0008E7E738B50B6905460C46CD
:1031500013B90025284638BD18B1036A0BB9FFF72B
:1031600033FEB4F90C30002BF3D0626ED00704D4D8
:10317000990502D4A06DFFF7BCFE28462146FFF753
:103180005FFF636EDA070546E4D4A3899B05E1D4AB
:10319000A06DFFF7AFFEDDE770B50F4E0C4631684E
:1031A000054611B900F0CAF830602146284600F003
:1031B000C5F8431C03D14FF0FF34204670BDC41C3A
:1031C00024F00304A042F8D0211A284600F0B6F8F3
:1031D0000130F2D1EFE700BF940800202DE9F84359
:1031E000CD1C25F0030508350C2D38BF0C25002D0E
:1031F000064601DBA94204D90C2333600020BDE858
:10320000F883DFF8D48000F08DF8D8F800301C4641
:1032100044BB29463046FFF7BFFF431C044658D144
:10322000D8F800402746002F43D1002C4BD023680C
:103230003946304604EB030900F080F8814542D15D
:1032400021686D1A29463046FFF7A6FF01303AD0B3
:1032500023682B442360D8F800305A6862BBC8F852
:1032600000700FE02268521B20D40B2A17D9611975
:10327000A342256018BF5960636808BFC8F80010F2
:1032800062514B60304600F053F804F10B00231DEF
:1032900020F00700C21A1CBF1B1AA350AFE76268D8
:1032A000A3420CBFC8F800205A60EBE723466468CD
:1032B000AEE73C467F68B6E71A465B68A342FBD19F
:1032C00000235360DEE70C233360304600F030F813
:1032D00094E70560D6E700BF9808002038B5074D91
:1032E00004460846114600222A601A4600F01CF9DE
:1032F000431C02D12B6803B1236038BD9008002025
:1033000038B5074D04460846114600222A601A4681
:1033100000F012F9431C02D12B6803B1236038BDC1
:10332000900800200148FFF7E4BD00BF8C08002092
:103330000148FFF7DFBD00BF8C08002038B5064DFF
:103340000023044608462B6000F0FEF8431C02D11F
:103350002B6803B1236038BD9008002038B50546BE
:10336000002941D051F8043C0C1F002BB8BFE418D1
:10337000FFF7D8FF1D4A136833B96360146028460D
:10338000BDE83840FFF7D4BFA34208D92068211810
:103390008B4201BF19685B6809182160EDE71A4686
:1033A0005B680BB1A342FAD911685018A0420BD147
:1033B00020680144501883421160E0D118685B68AE
:1033C000536008441060DAE702D90C232B60D6E77B
:1033D000206821188B4204BF19685B68636004BFD2
:1033E000091821605460CAE738BD00BF9808002062
:1033F00070B50C46B1F90E10002996B015461E4660
:103400000DDAA38913F0800F4FF0000114BF4023A1
:103410004FF48063002031602B6016B070BD6A46A7
:1034200000F048F80028ECDB019901F47041A1F5A7
:103430000053594259414FF48063EBE78B89F7B54C
:103440009D0706460C4607D504F147032360236118
:103450000123636103B0F0BD01AB6A46FFF7C8FF0B
:10346000009F054639463046FFF7B8FE48B9B4F923
:103470000C309A05EED423F0030343F00203A3813A
:10348000E2E7A389206043F08003A381019BC4E9A4
:1034900004075BB1B4F90E10304600F01DF828B1F6
:1034A000A38923F0030343F00103A381A3891D43F0
:1034B000A581CFE738B5074D0023044608461146DD
:1034C0002B6000F021F8431C02D12B6803B123606C
:1034D00038BD00BF9008002038B5064D00230446D3
:1034E00008462B6000F018F8431C02D12B6803B18A
:1034F000236038BD90080020024B58221A604FF01C
:10350000FF30704790080020024B58221A604FF09D
:10351000FF30704790080020024B58221A600020AC
:10352000704700BF90080020024B58221A604FF0ED
:10353000FF30704790080020024B58221A604FF06D
:10354000FF30704790080020044A05491368002B9B
:1035500008BF0B4618441060184670479C080020AE
:10356000A0080020024B58221A604FF0FF3070472D
:10357000900800202DE9F047089D0C46002B4ED105
:1035800094468C458646B2FA82F262D94AB1C2F1BB
:103590002003914020FA03F30CFA02FC194300FACD
:1035A00002FE4FEA1C471FFA8CF6B1FBF7F44FEA14
:1035B0001E4307FB141143EA014304FB06F1994241
:1035C0000AD91CEB030304F1FF3080F01281994209
:1035D00040F20F81023C6344591A1FFA8EF3B1FB8B
:1035E000F7F007FB101143EA014300FB06F69E4289
:1035F0000AD91CEB030300F1FF3180F0FC809E42EE
:1036000040F2F980634402389B1B40EA04400021E9
:103610001DB1D3400022C5E90032BDE8F0878B42DE
:1036200005D90DB1C5E9000100210846F5E7B3FA57
:1036300083F1002946D1A34202D39042C0F0F0802A
:10364000861A64EB03030120002DE6D0C5E9006370
:10365000E3E7002A40F09080A1EB0C044FEA1C48FD
:103660001FFA8CF70121B4FBF8F64FEA1E4308FB62
:10367000164443EA044307FB06F0984208D91CEBC2
:10368000030306F1FF3402D2984200F2CD802646B1
:103690001C1A1FFA8EF3B4FBF8F008FB104443EA3F
:1036A000044300FB07F79F4208D91CEB030300F11A
:1036B000FF3402D29F4200F2B0802046DB1B40EA7A
:1036C0000640A5E7C1F120068B4022FA06F71F430A
:1036D00020FA06FC04FA01F343EA0C03F44000FA72
:1036E00001F8380C4FEA1349B4FBF0FE1FFA87FCCF
:1036F00000FB1E4449EA04440EFB0CF9A14502FA02
:1037000001F20AD93C190EF1FF3A80F08480A145FC
:1037100040F28180AEF1020E3C44A4EB09041FFA92
:1037200083F9B4FBF0F300FB134449EA044403FBC0
:103730000CFCA44507D93C1903F1FF3067D2A4451E
:1037400065D9023B3C4443EA0E40A0FB0293A4EB44
:103750000C049C42CE469C4651D34ED055B1B8EB9A
:103760000E0364EB0C0404FA06F6CB401E43CC4077
:10377000C5E90064002150E7C2F1200320FA03F1FB
:103780000CFA02FC24FA03F394400C434FEA1C4861
:1037900000FA02FE1FFA8CF7B3FBF8F008FB1031B9
:1037A000230C43EA014300FB07F1994208D91CEBC3
:1037B000030300F1FF362CD299422AD90238634420
:1037C0005B1AA4B2B3FBF8F108FB113344EA0344DB
:1037D00001FB07F3A34208D91CEB040401F1FF36F7
:1037E00013D2A34211D902396444E41A41EA0041D8
:1037F00039E70446F0E6084606E7C845AED2B9EB1D
:10380000020E63EB070C0138A8E73146EDE70346EB
:1038100099E73046D4E7D6467FE7634402384DE760
:103820000646234608460FE7023E634430E700BFE2
:10383000F8B500BFF8BC08BC9E467047F8B500BF9D
:08384000F8BC08BC9E4670476D
:1038480054657374000000000100020004000600C3
:1038580008000A000C001000200040008000000151
:103868000804020408010101010101030701000025
:10387800A0860100400D0300801A060000350C00E8
:1038880040420F0080841E0000093D0000127A00AB
:103898000024F40000366E010048E801006CDC02E8
:1038A8000000000001020304000000000000000006
:0838B8000102030406070809E0
:0838C000B4FCFF7F01000000D1
:0838C8005D0200080000000091
:0838D0003502000800000000B1
:1038D800010000001000000000093D001000002059
:1038E8000000000050070020B80700202008002032
:1038F80000000000000000000000000000000000C0
:1039080000000000000000000000000000000000AF
:10391800000000000000000000000000000000009F
:10392800000000000000000000000000000000008F
:0839380003000000500700200D
:0400000508002B596B
:00000001FF
